:020000040800F2
:1000000000500020510E0008CD0D0008D50D00084D
:10001000DD0D0008E50D0008ED0D000800000000F2
:10002000000000000000000000000000F50D0008C6
:10003000010E0008000000000D0E0008190E000857
:10004000990E0008990E0008990E0008990E0008F4
:10005000990E0008990E0008990E0008990E0008E4
:10006000990E0008990E0008990E0008990E0008D4
:10007000990E0008990E0008990E0008990E0008C4
:10008000990E0008990E0008990E0008990E0008B4
:10009000990E0008990E0008990E0008990E0008A4
:1000A000990E0008990E0008990E0008990E000894
:1000B000990E0008990E0008990E0008990E000884
:1000C000990E0008990E0008990E0008990E000874
:1000D000990E0008990E0008250E0008990E0008D8
:1000E000990E0008990E0008990E00080000000003
:1000F0000000000000000000000000000000000000
:0C01000000000000000000005FF808F1A3
:10010C0010B5054C237833B9044B13B10448AFF345
:10011C0000800123237010BD20000020000000008F
:10012C00B016000808B5034B1BB103490348AFF3E5
:10013C00008008BD0000000024000020B01600085C
:10014C0080B485B000AF78607B6803F00703FB6078
:10015C000C4BDB68BB60BA684FF6FF031340BB6007
:10016C00FB681A02BB68134343F0BF6343F40033CC
:10017C00BB60044ABB68D36000BF1437BD4680BC6B
:10018C00704700BF00ED00E080B400AF044BDB68AB
:10019C001B0A03F007031846BD4680BC704700BF1E
:1001AC0000ED00E080B483B000AF0346FB7197F91B
:1001BC000730002B0BDBFB7903F01F02064997F984
:1001CC0007305B09012000FA02F241F8232000BF3E
:1001DC000C37BD4680BC704700E100E080B483B0B2
:1001EC0000AF03463960FB7197F90730002B0ADB2F
:1001FC003B68DAB20C4997F907301201D2B20B44C2
:10020C0083F800230AE03B68DAB20849FB7903F073
:10021C000F03043B1201D2B20B441A7600BF0C3709
:10022C00BD4680BC704700BF00E100E000ED00E07F
:10023C0080B489B000AFF860B9607A60FB6803F0F5
:10024C000703FB61FB69C3F10703042B28BF0423DD
:10025C00BB61FB690433062B02D9FB69033B00E04D
:10026C0000237B614FF0FF32BB6902FA03F3DA43E0
:10027C00BB681A407B699A404FF0FF317B6901FAE9
:10028C0003F3D9437B680B40134318462437BD4610
:10029C0080BC704780B400AF044B1B68034A43F426
:1002AC008033136000BFBD4680BC70470010024015
:1002BC0080B400AF064B1B6803F40033B3F5003F6A
:1002CC000CBF01230023DBB21846BD4680BC70472F
:1002DC000010024080B483B000AF7860064B5B68BE
:1002EC0023F0030204497B6813434B6000BF0C37B7
:1002FC00BD4680BC704700BF0010024080B400AF08
:10030C00034B5B6803F00C031846BD4680BC70477A
:10031C000010024080B483B000AF7860064B5B687D
:10032C0023F0F00204497B6813434B6000BF0C3789
:10033C00BD4680BC704700BF0010024080B483B043
:10034C0000AF7860064B5B6823F4E06204497B687D
:10035C0013434B6000BF0C37BD4680BC704700BFD9
:10036C000010024080B483B000AF7860064B5B682D
:10037C0023F4605204497B6813434B6000BF0C3775
:10038C00BD4680BC704700BF0010024080B400AF77
:10039C00044B1B68034A43F08073136000BFBD46D7
:1003AC0080BC70470010024080B400AF064B1B6845
:1003BC0003F00073B3F1007F0CBF01230023DBB209
:1003CC001846BD4680BC70470010024080B483B014
:1003DC0000AF78603960084B5B6823F47C127B6853
:1003EC0003F440313B680B43034913434B6000BF9C
:1003FC000C37BD4680BC70470010024080B485B0FD
:10040C0000AF7860084BDA6907497B681343CB610E
:10041C00054BDA697B681340FB60FB6800BF14373F
:10042C00BD4680BC704700BF0010024080B485B050
:10043C0000AF7860084B9A6907497B6813438B615E
:10044C00054B9A697B681340FB60FB6800BF14374F
:10045C00BD4680BC704700BF0010024080B483B022
:10046C0000AF7860064B1B6823F0070204497B68D9
:10047C0013430B6000BF0C37BD4680BC704700BFF8
:10048C000020024080B400AF034B1B6803F007034D
:10049C001846BD4680BC70470020024080B400AFB7
:1004AC00064B1B6803F48033B3F5803F0CBF01236C
:1004BC000023DBB21846BD4680BC704710E000E05C
:1004CC0080B483B000AF78607B68DB6843F4005283
:1004DC007B68DA6000BF0C37BD4680BC704780B4C7
:1004EC0083B000AF78607B68DB6823F400527B68D4
:1004FC00DA6000BF0C37BD4680BC704780B489B051
:10050C0000AF78607B680C33FB60FB6853E8003FFE
:10051C00BB60BB6843F00403FB617B680C33FA6976
:10052C00BA617B617969BA6941E800233B613B6937
:10053C00002BE7D100BF00BF2437BD4680BC7047FD
:10054C0080B489B000AF78607B680C33FB60FB68CB
:10055C0053E8003FBB60BB6823F00403FB617B687E
:10056C000C33FA69BA617B617969BA6941E8002395
:10057C003B613B69002BE7D100BF00BF2437BD4670
:10058C0080BC704780B489B000AF78607B680C3356
:10059C00FB60FB6853E8003FBB60BB6843F008039B
:1005AC00FB617B680C33FA69BA617B617969BA6962
:1005BC0041E800233B613B69002BE7D100BF00BF42
:1005CC002437BD4680BC704780B483B000AF7860E0
:1005DC007B681B6923F490427B681A617B685B69BA
:1005EC0023F02A027B685A6100BF0C37BD4680BCE1
:1005FC00704780B483B000AF78607B681B6803F0F1
:10060C002003202B0CBF01230023DBB218460C3730
:10061C00BD4680BC704780B483B000AF78607B6807
:10062C001B6803F08003802B0CBF01230023DBB27B
:10063C0018460C37BD4680BC704780B489B000AFFB
:10064C0078607B680C33FB60FB6853E8003FBB6051
:10065C00BB6843F02003FB617B680C33FA69BA6119
:10066C007B617969BA6941E800233B613B69002BE6
:10067C00E7D100BF00BF2437BD4680BC704780B4B3
:10068C0083B000AF78607B685B68DBB218460C37D0
:10069C00BD4680BC704780B483B000AF78600B4619
:1006AC00FB70FA787B685A6000BF0C37BD4680BC83
:1006BC00704790B488B000AFF860B9607A60FB689E
:1006CC001A46BB681B0E13441C462268BB687B6130
:1006DC007B6993FAA3F33B613B69B3FA83F3DBB217
:1006EC009B000F2101FA03F3DB431A40BB68FB614B
:1006FC00FB6993FAA3F3BB61BB69B3FA83F3DBB277
:10070C009B00796801FA03F31343236000BF203781
:10071C00BD4690BC704780B483B000AF7860396040
:10072C003B681B0A9AB27B681A6100BF0C37BD4646
:10073C0080BC704780B483B000AF786039603B6890
:10074C001B0A9AB27B685A6100BF0C37BD4680BC4D
:10075C007047000080B400AF054B5B6823F0E0638A
:10076C00034A43F00073536000BFBD4680BC704722
:10077C000000014090B583B000AF0023FB716248CC
:10078C00FFF7DEFE6048FFF7AAFE01225F496048D2
:10079C00FFF78FFF5D495E48FFF7CCFF462000F066
:1007AC00C5FE5A495A48FFF7B6FF782000F0BEFE46
:1007BC00092256495648FFF77CFF5348FFF780FE45
:1007CC000023FB71534B1B7843F00103DAB2514BFE
:1007DC001A7010E000BF4C48FFF71DFF0346002BBA
:1007EC00F9D0FB794C4AD35C19464748FFF753FFC5
:1007FC00FB790133FB71FB79042BEBD1454B1B7857
:10080C0023F00103DAB2434B1A70C82000F08EFEBD
:10081C000023FB713F4B1B7843F00103DAB23D4BD5
:10082C001A7010E000BF3848FFF7F5FE0346002BA6
:10083C00F9D0FB79394AD35C19463348FFF72BFFC3
:10084C00FB790133FB71FB79052BEBD1314B1B7819
:10085C0023F00103DAB22F4B1A703149314800F002
:10086C00B7FE314B4FF4FA721A802748FFF746FE59
:10087C00284B1A78274B1A700023FB711DE0FFF7E9
:10088C000DFE0346002B07D0274B1B885A1E91B236
:10089C00254A1180002B33D01B48FFF7AAFE0346D4
:1008AC00002BECD0FC791848FFF7E9FE03461A46FA
:1008BC001E4B1A55FB790133FB71FB79042BEBD1E1
:1008CC001A4B1A781A4B1B789A421AD1174B5A7832
:1008DC00174B5B789A4214D1144B9A78144B9B7833
:1008EC009A420ED1114BDA78114BDB789A4208D12F
:1008FC00084B1B7843F00203DAB2064B1A7000E087
:10090C0000BF0C37BD4690BD003801400200020408
:10091C00000801403C0000200400002008000020DA
:10092C0000440040C81600080200002040000020CF
:10093C001000002080B584B000AF03460A46FB715E
:10094C001346BB710023FB731D4AFB79D3701C4A01
:10095C00BB7913711B48FFF7F3FD0023FB731A4B94
:10096C001B7843F00103DAB2174B1A7010E000BF8A
:10097C001448FFF750FE0346002BF9D0FB7B104ABE
:10098C00D35C19460F48FFF786FEFB7B0133FB73E4
:10099C00FB7B052BEBD10C4B1B7823F00103DAB25C
:1009AC00094B1A700748FFF7A9FD074B1B7843F05A
:1009BC000303DAB2044B1A7000BF1037BD4680BD7A
:1009CC0014000020003801403C00002090B583B09A
:1009DC0000AF0023FB710223BB712449244800F0B3
:1009EC00F7FD244B4FF4FA721A80234B1A78224BE2
:1009FC001A700023FB712BE0FFF750FD0346002B10
:100A0C000FD01C4B1B885A1E91B21A4A1180002B16
:100A1C0007D1194B1B7823F00203DAB2164B1A706C
:100A2C0021E01648FFF7E5FD0346002BE4D0FC79E6
:100A3C001248FFF724FE03461A46114B1A55FB7950
:100A4C000133FB71FB79022B02D10D4B5B78BB712F
:100A5C00FA79BB799A42E4D1074B1B7823F0030354
:100A6C00DAB2054B1A700C37BD4690BD00440040FD
:100A7C00E8160008020000203C000020003801406D
:100A8C004000002080B500AF0120FFF7CFFC4FF0F5
:100A9C008050FFF7B3FC0320FFF752FBFFF774FB0A
:100AAC00034600220F211846FFF7C2FB03461946E6
:100ABC004FF0FF30FFF792FBFFF74CFE00F044F8CD
:100ACC0000F03EF900F07EF800F0D4F81A48FFF779
:100ADC0015FD1948FFF756FD1748FFF7F1FC1748AD
:100AEC00FFF70CFD1548FFF74DFD1448FFF7A5FD6A
:100AFC001248FFF7E5FC124B1B7803F00203002BA6
:100B0C0002D1FFF737FE12E00E4B1B78312B02D0CF
:100B1C00322B05D009E04721D120FFF70BFF04E071
:100B2C0008211020FFF706FF00BFFFF74FFFC8207A
:100B3C0000F0FCFCDFE700BF00380140004400403F
:100B4C003C0000200000002080B500AF0220FFF721
:100B5C0085FC00BFFFF796FC0346022BFAD1FFF78A
:100B6C0099FB00BFFFF7A4FB0346012BFAD14FF40E
:100B7C00E0114FF48030FFF729FCFFF707FC00BFB2
:100B8C00FFF712FC0346012BFAD10020FFF7C2FB42
:100B9C004FF48060FFF7D2FB0020FFF7E3FB02204D
:100BAC00FFF798FB00BFFFF7A9FB0346082BFAD110
:100BBC00034800F0ADFC024800F0DCFC00BF80BD37
:100BCC0000A24A0480B58CB000AF07F114030022D8
:100BDC001A605A609A60DA601A615A619A613B46EF
:100BEC0000221A605A609A60DA601A614FF48040F1
:100BFC00FFF71CFC0420FFF719FC1A4B3B60092380
:100C0C007B600323BB600023FB603B461946164800
:100C1C0000F0F5F9154B3B6004237B603B4619460D
:100C2C00114800F0ECF942F6A0037B610023BB6194
:100C3C000023FB6100233B620C237B620023BB621D
:100C4C000023FB6207F114031946094800F0E6FB88
:100C5C000748FFF7B9FC0648FFF732FC00BF3037F6
:100C6C00BD4680BD020002040008014004000404DB
:100C7C000038014080B58CB000AF07F1140300229E
:100C8C001A605A609A60DA601A615A619A613B463E
:100C9C0000221A605A609A60DA601A614FF40030D0
:100CAC00FFF7ACFB0420FFF7C1FB40F204433B60B1
:100CBC0009237B600323BB600023FB603B46194682
:100CCC001D4800F09CF940F608033B6004237B6050
:100CDC003B461946184800F092F9FFF755FA0346BF
:100CEC00002200211846FFF7A3FA034619462620D6
:100CFC00FFF774FA2620FFF755FA4FF4E1337B61C6
:100D0C000023BB610023FB6100233B620C237B624D
:100D1C000023BB620023FB6207F11403194607484A
:100D2C0000F07CFB0548FFF74FFC0448FFF7C8FBBD
:100D3C0000BF3037BD4680BD000801400044004074
:100D4C0080B586B000AF3B1D00221A605A609A60D5
:100D5C00DA601A612020FFF769FB0420FFF766FBBD
:100D6C0044F240010F48FFF7E5FC44F240037B607E
:100D7C000123BB600223FB6000233B613B1D194632
:100D8C00084800F03CF948F280037B600423BB6008
:100D9C003B1D1946034800F032F900BF1837BD4619
:100DAC0080BD00BF0008014080B483B000AF786004
:100DBC007B685B68DBB218460C37BD4680BC70475D
:100DCC0080B400AF00BFFDE780B400AF00BFFDE70B
:100DDC0080B400AF00BFFDE780B400AF00BFFDE7FB
:100DEC0080B400AF00BFFDE780B400AF00BFBD46CC
:100DFC0080BC704780B400AF00BFBD4680BC70475C
:100E0C0080B400AF00BFBD4680BC704780B400AF5B
:100E1C0000BFBD4680BC704780B500AF0448FFF7EB
:100E2C00C3FF03461A46034B1A7000BF80BD00BFB8
:100E3C00004400400000002080B400AF00BFBD465D
:100E4C0080BC7047FFF7F8FF0B480C490C4A002395
:100E5C0002E0D458C4500433C4188C42F9D3094A64
:100E6C00094C002301E013600432A242FBD300F0D2
:100E7C00F5FBFFF707FE7047000000202000002064
:100E8C0034170008200000205C000020FEE790B41E
:100E9C0088B000AFF860B9607A60FB681A46BB682E
:100EAC001B0E13441C462268BB687B617B6993FA5A
:100EBC00A3F33B613B69B3FA83F3DBB29B000F21D5
:100ECC0001FA03F3DB431A40BB68FB61FB6993FA3D
:100EDC00A3F3BB61BB69B3FA83F3DBB29B00796804
:100EEC0001FA03F31343236000BF2037BD4690BCC7
:100EFC00704790B488B000AFF860B9607A60FB6856
:100F0C001A46BB681B0E13441C462268BB687B61E7
:100F1C007B6993FAA3F33B613B69B3FA83F3DBB2CE
:100F2C009B00032101FA03F3DB431A40BB68FB610E
:100F3C00FB6993FAA3F3BB61BB69B3FA83F3DBB22E
:100F4C009B00796801FA03F31343236000BF203739
:100F5C00BD4690BC704790B488B000AFF860B960E3
:100F6C007A60FB681A46BB681B0E13441C46226849
:100F7C00BB687B617B6993FAA3F33B613B69B3FA72
:100F8C0083F3DBB29B00042101FA03F3DB431A4029
:100F9C00BB68FB61FB6993FAA3F3BB61BB69B3FA52
:100FAC0083F3DBB29B00796801FA03F313432360EC
:100FBC0000BF2037BD4690BC704780B487B000AFEF
:100FCC00F860B9607A60FB68DA68BB681B0ADB43BF
:100FDC001A40BB681B0A7B617B6993FAA3F33B61E4
:100FEC003B69B3FA83F3DBB219467B688B401A4337
:100FFC00FB68DA6000BF1C37BD4680BC704780B50B
:10100C0088B000AF786039603B681B681B021B0C12
:10101C007B617B693B613B6993FAA3F3FB60FB68E3
:10102C00B3FA83F3DBB2FB6144E00122FB699A4023
:10103C007B691340002B3AD0FB69072B06D840F292
:10104C000112FB6902FA03F3BB6108E0FB69083B80
:10105C004FF0011202FA03F343F08063BB613B686B
:10106C005B68082B06D13B681B691A46B96978681E
:10107C00FFF7A3FF3B685B681A46B9697868FFF70E
:10108C0006FF3B685B68012B03D03B685B68092B50
:10109C000DD13B689B681A46B9697868FFF729FF40
:1010AC003B68DB681A46B9697868FFF754FFFB693F
:1010BC000133FB617A69FB6922FA03F3002BB4D18B
:1010CC00002318462037BD4680BD000080B400AF19
:1010DC00034B5B6803F00C031846BD4680BC70479D
:1010EC000010024080B400AF034B5B6803F0F003C8
:1010FC001846BD4680BC70470010024080B400AF5B
:10110C00034B5B6803F4E0631846BD4680BC704734
:10111C000010024080B400AF034B5B6803F46053D3
:10112C001846BD4680BC70470010024080B400AF2A
:10113C00034B5B6803F480331846BD4680BC704794
:10114C000010024080B400AF034B5B6803F47013D3
:10115C001846BD4680BC70470010024080B400AFFA
:10116C00044B5B685B0C03F001031846BD4680BC66
:10117C00704700BF0010024080B582B000AF7860AD
:10118C0000F020F802467B681A607B681B681846E2
:10119C0000F03EF802467B685A607B685B68184634
:1011AC0000F04CF802467B689A607B685B681846D6
:1011BC0000F058F802467B68DA6000BF0837BD467D
:1011CC0080BD000080B582B000AF00237B60FFF7CC
:1011DC007DFF0346082B0CD0082B0ED8002B02D019
:1011EC00042B03D009E0094B7B6009E0074B7B60C3
:1011FC0006E000F04BF8786002E0044B7B6000BF27
:10120C007B6818460837BD4680BD00BF00127A00C7
:10121C0080B582B000AF7860FFF764FF03461B090E
:10122C0003F00F03044AD35C1A467B68D34018467C
:10123C000837BD4680BD00BF1417000880B582B0CA
:10124C0000AF7860FFF75AFF03461B0A044AD35CD1
:10125C001A467B68D34018460837BD4680BD00BF90
:10126C002417000880B582B000AF7860FFF752FFFA
:10127C000346DB0A044AD35C1A467B68D340184603
:10128C000837BD4680BD00BF2417000880B582B06A
:10129C0000AF00237B6000233B60FFF747FF386003
:1012AC003B68002B04D03B68B3F5803F03D00BE0C8
:1012BC000D4B7B600BE0FFF751FF034601330B4AEC
:1012CC00B2FBF3F37B6002E0074B7B6000BFFFF7E0
:1012DC0039FF03469B0C02337A6802FB03F3184672
:1012EC000837BD4680BD00BF00093D0000127A00E2
:1012FC0080B483B000AF78607B68DB6803F4005384
:10130C00B3F5005F0CBF01230023DBB218460C378A
:10131C00BD4680BC704780B483B000AF7860396044
:10132C007B681B6923F440523B681A437B681A6143
:10133C0000BF0C37BD4680BC704780B483B000AF93
:10134C00786039607B685B6923F440723B681A43B0
:10135C007B685A6100BF0C37BD4680BC70470000EB
:10136C0080B485B000AFF860B9607A60BA68134693
:10137C009B0013449A001A447B689B00B2FBF3F366
:10138C00254AA2FB03235B099BB21B0199B2BA68E5
:10139C0013469B0013449A001A447B689B00B2FBD3
:1013AC00F3F21D4BA3FB02035B09642000FB03F368
:1013BC00D31A1B013233184AA2FB03235B099BB2DD
:1013CC0003F0F0039BB20B4499B2BA6813469B002E
:1013DC0013449A001A447B689B00B2FBF3F20E4B49
:1013EC00A3FB02035B09642000FB03F3D31A1B016C
:1013FC003233094AA2FB03235B099BB203F00F03B0
:10140C009BB20B449BB21A46FB689A6000BF143720
:10141C00BD4680BC704700BF1F85EB5180B588B0BE
:10142C0000AF786039600123FB770023BB617868DB
:10143C00FFF75EFF0346002B45D17B68DB6823F486
:10144C00B05323F00C033A6851683A68D2681143E0
:10145C003A6812690A431A437B68DA603B689B68F6
:10146C0019467868FFF757FF3B685B69194678683F
:10147C00FFF763FF07F108031846FFF77DFE7B6853
:10148C00134A934202D17B69BB610CE07B68114A21
:10149C00934202D13B69BB6105E07B680E4A9342E3
:1014AC0001D13B69BB61BB69002B0CD03B681B684D
:1014BC00002B08D00023FB773B681B681A46B969E0
:1014CC007868FFF74DFFFB7F18462037BD4680BD7F
:1014DC0000380140004400400048004080B483B014
:1014EC0000AF786039607A683B68B2FBF3F3074A67
:1014FC00013B5360054B00229A60044B05221A6095
:10150C0000BF0C37BD4680BC704700BF10E000E048
:10151C0080B582B000AF78604FF47A717868FFF7CD
:10152C00DDFF00BF0837BD4680BD000080B485B02C
:10153C0000AF78600E4B1B68FB60FB687B68B3F1F7
:10154C00FF3F0CD07B6801337B6008E0084B1B68C5
:10155C0003F48033002B02D07B68013B7B607B68FB
:10156C00002BF3D100BF00BF1437BD4680BC7047C1
:10157C0010E000E080B483B000AF7860034A7B6871
:10158C00136000BF0C37BD4680BC70471C000020A8
:10159C0080B483B000AF78607B681B6803F0800375
:1015AC00802B0CBF01230023DBB218460C37BD4641
:1015BC0080BC704780B483B000AF78600B46FB7082
:1015CC00FA787B685A6000BF0C37BD4680BC704708
:1015DC0080B582B000AF7860396017E07B681B780B
:1015EC000A2B03D1386800F01AF80CE000BF3868F9
:1015FC00FFF7CEFF0346002BF9D07B681B7819460A
:10160C003868FFF7D7FF7B6801337B607B681B78FA
:10161C00002BE3D100BF00BF0837BD4680BD80B5AD
:10162C0082B000AF786000BF7868FFF7B1FF034667
:10163C00002BF9D00D217868FFF7BCFF00BF78684C
:10164C00FFF7A6FF0346002BF9D00A217868FFF7B5
:10165C00B1FF00BF0837BD4680BD000070B5002645
:10166C000C4D0D4C641BA410A64209D100F01AF8C5
:10167C0000260A4D0A4C641BA410A64205D170BD6D
:10168C0055F8043B98470136EEE755F8043B98476C
:10169C000136F2E72C1700082C1700082C1700084D
:1016AC0030170008F8B500BFF8BC08BC9E46704760
:0C16BC00F8B500BFF8BC08BC9E467047A3
:1016C80057616974696E6720666F72207468652057
:1016D80045435520746F20726573706F6E640A00FD
:1016E80057616974696E6720666F72207468652037
:1016F80045435520746F20726573706F6E64207453
:101708006F20726571756573740A0000000000002F
:101718000000000001020304060708090000000099
:0417280001020304B3
:04172C00310100087F
:041730000D0100089F
:1017340031000100FE04FFFF720500F09900000073
:10174400020400FA720571104700000000127A00CA
:0400000508000E5190
:00000001FF
